:020000040800F2
:1000000098040020ED010008F5010008F701000840
:10001000F9010008FB010008FD01000800000000D4
:10002000000000000000000000000000FF010008C8
:100030000102000800000000030200087D1600080D
:10004000070200080702000807020008070200086C
:10005000070200080702000807020008070200085C
:10006000070200080702000807020008070200084C
:10007000070200080702000807020008070200083C
:10008000070200080702000807020008070200082C
:10009000070200080702000807020008070200081C
:1000A000070200080702000807020008070200080C
:1000B00007020008070200080702000807020008FC
:1000C00007020008070200080702000807020008EC
:1000D00007020008070200080702000807020008DC
:1000E00007020008070200080702000807020008CC
:1000F00007020008070200080702000807020008BC
:1001000007020008070200080702000807020008AB
:10011000070200080702000807020008070200089B
:10012000070200080702000807020008070200088B
:10013000070200080702000807020008070200087B
:10014000070200080702000807020008070200086B
:10015000070200080702000807020008070200085B
:10016000070200080702000807020008070200084B
:10017000070200080702000800000000000000005D
:10018000070200080702000807020008070200082B
:10019000070200080702000800000000070200082C
:1001A000070200080702000800000000000000002D
:1001B000070200080000000000000000070200081D
:1001C00007020008070200080702000807020008EB
:1001D0000702000807020008DFF80CD000F018F84A
:1001E00000480047BD1A00089804002006488047D0
:1001F00006480047FEE7FEE7FEE7FEE7FEE7FEE70C
:10020000FEE7FEE7FEE7FEE739170008D901000820
:10021000064C074D06E0E06840F0010394E8070053
:1002200098471034AC42F6D3FFF7DAFF8C1C000875
:10023000AC1C000801688A69D243920701D40022ED
:100240008A6200688169C943C90703D0816941F0A6
:1002500001018161704700002DE9F041044600680A
:1002600090460E468069C043C0062ED40025202744
:1002700020688069C043800611D5701CF8D02EB16B
:1002800000F0FCFAA0EB0800B042F1D984F841700C
:1002900084F8425084F840500320BDE8F081216882
:1002A0001020C8612068C7612046FFF7C3FF54F8DB
:1002B000440B4168064A11404160042044F820097B
:1002C0006777A57725770120E7E70020E5E70000BD
:1002D00000E800FE70B50568049E6C68054804409F
:1002E000C1F3090040EA02401843304320436860EC
:1002F00070BD0000009800FC2DE9F0411D46174636
:100300000E460446DDF8188013E0681C11D02DB1AC
:1003100000F0B4FAA0EB0800A8420AD9202084F823
:100320004100002084F8420084F840000320BDE82A
:10033000F0812068806936EA000004D00020B842CD
:10034000E3D00020F3E70120F9E700002DE9F041B8
:10035000002690460F46044620252DE042463946A9
:100360002046FFF779FF10B10120BDE8F081206839
:100370008069C04380060ED42068C561206841684A
:10038000114A11404160666484F8415084F842602B
:1003900084F84060E8E72FB100F070FAA0EB0800A5
:1003A000B84209D954F8440F40F0200044F8040939
:1003B000657026700320D8E720688069C043400735
:1003C000CCD40020D1E7000000E800FE70B516464E
:1003D0000D4604461AE0324629462046FFF73CFF08
:1003E00008B1012070BD25B100F048FA801BA84279
:1003F0000CD954F8440F40F0200044F804092020A0
:1004000060700020A0702070032070BD206880699B
:10041000C0438006DFD4002070BD90F84120202A20
:1004200024D190F84020012A20D0012280F84020D9
:10043000242280F841200268136823F0010313602E
:100440000268136823F480531360026813680B4337
:10045000136001680A6842F001020A60202180F8F6
:100460004110002180F84010084670470220704774
:10047000074908B50A6842F480420A60096801F435
:100480008041009103490A6802430A6008BD0000E8
:10049000443802402C38014070B5040004D094F870
:1004A0004100002510B106E0012070BD84F84050E5
:1004B000204600F0E5F8242084F841002068016817
:1004C00021F0010101606068216820F0706008611E
:1004D0002068816821F400418160A06830B1E16842
:1004E000012907D040F4044021688860E0680228B0
:1004F00003D006E040F40040F6E721684FF40060C6
:10050000486020684168114A114341602068C16811
:1005100021F40041C160D4E904010843A16940EA23
:1005200001202168C860D4E90701084321680860F8
:100530002068016841F0010101606564202084F8B1
:100540004100256384F84250002070BD0080000205
:100550002DE9F84F044690F84100DDF828A01E462A
:1005600090468B4620287CD194F84000012878D012
:10057000012084F8400000F081F907460122009034
:100580001923D1032046FFF7B7FE60BB222084F871
:100590004100102084F8420000256564C4F82480DE
:1005A00066856563618DFF264FF410504FF08078AB
:1005B0004FF00079FF2903D926853246009036E0B6
:1005C000618D2185009038E059462046FFF782FE74
:1005D000208D70B33A4651462046FFF7B7FE18B15A
:1005E000606C042846D019E02068416A606A421CA9
:1005F00062620170208D401E0004000C2085618D18
:10060000A1F101016185E5D1608D90B153460022D1
:10061000802120460097FFF76FFE10B10320BDE850
:10062000F88F608DFF2805D9268532460095434610
:10063000CAE706E0608D2085009594F828204B4697
:10064000C2E73A4651462046FFF7C0FE0028C7D110
:1006500021682020C86121684A68084B1A404A6016
:1006600000E009E084F8410084F8425084F84050EA
:100670000020D4E70120D2E70220D0E700E800FE06
:1006800000B500680E4987B0884217D14FF440404A
:10069000009012200190012002900320039004207A
:1006A00004906946074800F011F80748016841F0D6
:1006B00080710160006800F08070059007B000BD97
:1006C0000060004000140240403802402DE9F84F1D
:1006D000DFF874B100224FF001084FF0030A4FF029
:1006E0000F090BF1040E00BF0B6808FA02F4234057
:1006F000A3426ED14D68022D01D0122D0ED1D50826
:1007000000EB850CDCF820505607F70E09FA07F6C7
:10071000B5430E69BE402E43CCF8206006685500F4
:100720000F790AFA05FC07F0030726EA0C06AF402A
:10073000374307604E68012E05D0022E03D0112EDC
:1007400001D0122E0ED18668CF6826EA0C06AF4083
:10075000374387604668A6430C79C4F3001494407D
:1007600034434460C4688E6824EA0C04AE402643D7
:10077000C6604C68E40060D5344C256845F480457B
:100780002560246822F0030504F480440094304C72
:100790002E19D6F8084895072F0F09FA07F5AC432C
:1007A0002C4DA84201D100251FE02B4DA84201D1BC
:1007B00001251AE0294DA84201D1022515E0284D56
:1007C000A84201D1032510E0264DA84202D10425FC
:1007D0000BE032E0244DA84201D1052505E0234D70
:1007E000A84201D1062500E00725BD402543C6F8F3
:1007F0000858DBF800405D464E689C43F60300D580
:100800001C432C60DEF8004075464E689C43B603DE
:1008100000D51C432C600C4D08352C684E689C4359
:10082000F60200D51C432C60074D0C352C684E6831
:100830009C43B60200D51C432C60521C102AFFF4C6
:1008400053AFBDE8F88F0000003C0140443802403F
:100850000030014000000240000402400008024055
:10086000000C024000100240001402400018024038
:100870000AB1816170470904FBE700000148006884
:10088000704700000000002002480168491C016018
:1008900070470000000000200B4810B5016841F4CB
:1008A00000710160016841F480610160016841F4F8
:1008B00080710160032000F075F8002000F006F858
:1008C00000F018F8002010BD003C024010B50446AE
:1008D00007484FF47A710068B0FBF1F000F01DFD9D
:1008E00000222146501E00F03DF8002010BD0000FF
:1008F000040000201A4808B5016841F480410160F5
:10090000006800F480400090032000F04BF80022C3
:1009100011466FF00B0000F025F8002211466FF031
:100920000A0000F01FF8002211466FF0090000F0E5
:1009300019F800221146501F00F014F80022114649
:10094000101F00F00FF800221146901E00F00AF868
:100950000022BDE808401146501E00F003B8000018
:1009600044380240F0B40E4B1B680C46C3F302231C
:10097000C3F10705042D00D90425191D072901D24B
:10098000002300E0DB1E012606FA05F1491E214086
:1009900099409E40761E16403143F0BC00F05EBE8A
:1009A0000CED00E0064900F0070208684FF6FF036F
:1009B000184040EA0220034A1043086070470000D4
:1009C0000CED00E00000FA052DE9F84F0446007830
:1009D0000027E34DC00708D02868E16920F0C06017
:1009E00008432860E06900B901272078800708D50E
:1009F0002868216A20F0C05008432860206A00B9A6
:100A00000127208881046FF0FF0015D52968A26CAA
:100A100021F4401111432960A16C19B1B1F5001FF7
:100A200002D009E0012707E02968626921F4F85142
:100A300000EB0222114329602188490415D5296859
:100A4000E26C21F4400111432960E16C19B1B1F568
:100A5000000F02D009E0012707E02968626921F44C
:100A6000F85100EB02200143296020784FF0000983
:100A7000000755D5BA484C38016841F080510160F3
:100A80000068DFF8E08200F080500090D8F8001095
:100A900041F48071C8F80010FFF7F0FE064604E04C
:100AA000FFF7ECFE801B02286FD8D8F80000C005C5
:100AB000F6D5AB4E1C3E306810F440701FD0A18CB0
:100AC00001F4407181421AD03068A749012220F414
:100AD00040700A60C1F8009030603068C0070ED0E6
:100AE000FFF7CCFE804641F2883A05E0FFF7C6FEEC
:100AF000A0EB08015145D7D830688007F6D5616A68
:100B00009748C1F301228438032A36D0016821F4C2
:100B1000F81101603068A18CC1F30B01084330600B
:100B20002078DFF848A2400703D594F85410CAF89B
:100B3000E01120788E4EC00605D53068E16A20F4B9
:100B400040000843306020784FF00068800609D5E7
:100B50003068216B20F0006008433060206B404516
:100B600000D101272078400605D53068A16A20F021
:100B700080500843306067B908E002687D4B22F47A
:100B8000F81219400A430260C4E781E02068802817
:100B90007DD1DFF8E4B1CBF86890FFF76FFE704FBE
:100BA00081468C3F06E000BFFFF768FEA0EB09001E
:100BB00002286DD838680001F6D4216DCAF8D81023
:100BC00022686E49D30747F6C07A4FF070604FF045
:100BD000E04901D0E3697BB1930701D5236A5BB19A
:100BE000930602D5236B434506D0520620D5A26A50
:100BF000F2B9226B42451BD1D4E901239AFAAAFC2F
:100C0000BCFA8CFC03FA0CF31A4390FAA0FCE368DC
:100C1000BCFA8CFC03FA0CF399FAA9F8D4F810C0CA
:100C2000B8FA88F80CFA08FC43EA0C031A430A6085
:100C30002268930401D5A36C1BB1520430D5E26C39
:100C40003ABB0A6890FAA0F302F07062B3FA83F339
:100C5000DA40D4E9013C9AFAAAF8B8FA88F80CFA12
:100C600008FC43EA0C0390FAA0FCBCFA8CFC02FAE4
:100C70000CF299FAA9F8D4F810C0B8FA88F80CFA6E
:100C800008FC42EA0C0213430B602A6802E037E0DA
:100C900030E005E0A36922F01F025B1E1A432A60C0
:100CA0002278120618D5D4E901239AFAAAFCBCFAD4
:100CB0008CFC03FA0CF31A4390FAA0F0E368B0FA44
:100CC00080F0834099FAA9FC2069BCFA8CFC00FAF8
:100CD0000CF003431A430A600120CBF86800FFF7C9
:100CE000CDFD804609E000BFFFF7C8FDA0EB08007E
:100CF000022802D90320BDE8F88F38680001F3D537
:100D00002088C00505D52868616B20F000400843A5
:100D100028602088800505D52868A16B20F4004054
:100D2000084328602088400505D52868E16B20F03D
:100D30000040084328602088000505D52868216CFC
:100D400020F48040084328602088C00405D530681E
:100D5000616C20F04040084330600020CBE7000089
:100D60008C38024000700040400E4742001047425D
:100D700094380240FFFCFF0F0000474284380240D5
:100D80002DE9F047DFF8649105460F46D9F80000D9
:100D900000F00F01F8B28046B94208D2014689F846
:100DA0000010D9F8000000F00F00B84274D1287884
:100DB0004F4C800705D52068A96820F0F000084353
:100DC00020602878C00759D0494968680839012847
:100DD0001AD002281BD0032819D0096889070029D6
:100DE0005ADA216821F0030101432160FFF746FD33
:100DF0006968064641F28830012911D002291DD0C8
:100E00000329824627D035E009688903E7E70968A6
:100E10008901E4E7FFF732FD811B514501D926E046
:100E200082462068C0F381000128F3D126E000BF8C
:100E3000FFF724FD811B514501D918E08246206847
:100E4000C0F381000228F3D118E000BFFFF716FDC0
:100E5000811B51450BD82068C0F381000328F5D1D0
:100E60000CE000BFFFF70AFD811B514502D90320AA
:100E7000BDE8F087206810F00C0FF3D1D9F800100E
:100E8000484601F00F01B94208D980F80080006897
:100E900000F00F00B84201D00120E9E728784007B0
:100EA00005D52068E96820F4E050084320602878E0
:100EB000000706D52068296920F4604040EAC10097
:100EC000206000F051F82168F02292FAA2F201F0BD
:100ED000F001B2FA82F2D140064A515CC84006499C
:100EE00008600020FFF7F2FC0020C1E7003C024050
:100EF00008380240741C0008040000200148006803
:100F0000704700000400002008480949006809688B
:100F10004FF4E05292FAA2F201F4E051B2FA82F2F6
:100F2000D140044A515CC8407047000004000020D2
:100F300008380240841C000808480949006809680C
:100F40004FF4604292FAA2F201F46041B2FA82F2E6
:100F5000D140044A515CC8407047000004000020A2
:100F600008380240841C000830B51948006810F0A9
:100F70000C01184812D0441004290ED008290DD1B4
:100F80001349091F0A6802F03F030A68550247F631
:100F9000C07204D5B4FBF3F003E0204630BDB0FBD3
:100FA000F3F00B680968134092FAA2F2B2FA82F2E7
:100FB000D34058434FF4403292FAA2F201F4403148
:100FC000B2FA82F2D140491C4900B0FBF1F030BDC9
:100FD000083802400024F4002DE9F84F0546DFF8F8
:100FE00010930078A9F1040BC007ABF1040449D0B9
:100FF000D9F800104846C1F38101012908D00068E2
:10100000C0F3810002280AD1DBF80000400206D5B7
:101010002068800336D5686800286ED032E06868A2
:10102000B0F5803F10D0B0F5A02F206810D020F48C
:1010300080302060206820F4802020606868A0B1A3
:10104000FFF71CFC06460CE0206840F48030F4E713
:1010500040F480202060F7E7FFF710FC801B642835
:1010600071D820688003F7D50CE0FFF707FC06462F
:1010700005E000BFFFF702FC801B6428F0D8206861
:101080008003F7D428789B4F80074FF0010A4FF078
:10109000000841D5D9F80010484611F00C0F08D0CF
:1010A0000068C0F3810002280AD1DBF8000040028A
:1010B00006D42068800713D5E86801281DD10FE009
:1010C000E868D8B1C7F800A0FFF7D8FB064604E0EF
:1010D000FFF7D4FB801B0228C2D820688007F7D511
:1010E0002068F82292FAA2F22969B2FA82F220F07C
:1010F000F8009140084320600EE0F6E0C7F8008059
:10110000FFF7BCFB064604E0FFF7B8FB801B022894
:1011100019D820688007F7D42878000724D57648A6
:10112000696989B1C0F800A0FFF7A8FB064604E092
:10113000FFF7A4FB801B022805D86D486C300068BF
:101140008007F5D510E07AE0C0F80080FFF796FB45
:10115000064604E0FFF792FB801B02286FD8644824
:101160006C3000688007F5D42878400753D5604874
:101170003830016841F080510160006800F0805013
:1011800000905E48016841F480710160FFF776FBD2
:10119000064604E0FFF772FB801B02284FD8574831
:1011A0000068C005F6D5524EA868683601280FD0F1
:1011B0000528306810D020F001003060306820F041
:1011C00004003060A868B8B1FFF758FB00900FE04A
:1011D000306840F00100F4E740F004003060F7E7C9
:1011E000FFF74CFB0099411A41F28830814274D8D4
:1011F00030688007F4D50EE0FFF740FB009007E071
:10120000FFF73CFB0099411A41F28830814264D8D3
:1012100030688007F4D4A869E8B3D9F80010C1F3A6
:101220008101022961D00228C7F8608003D0FFF74E
:1012300025FB054654E0FFF721FB064605E04CE0A0
:10124000FFF71CFB801B022847D820688001F7D4D9
:10125000D5E90701084347F6C07292FAA2F2696A1B
:10126000B2FA82F29140AA6A4FF0FF3303EB5202C6
:101270004FF4403393FAA3F3B3FA83F39A40114344
:1012800008434FF0706292FAA2F2E96AB2FA82F26F
:101290009140084300E026E04FF0E04292FAA2F2CB
:1012A000296BB2FA82F291400843CBF80000C7F8EC
:1012B00060A0FFF7E3FA054605E000BFFFF7DEFA9E
:1012C000401B022809D820688001F7D50BE000BF39
:1012D000FFF7D4FA401B022802D90320BDE8F88F9B
:1012E00020688001F4D40020F8E70120F6E7000030
:1012F0000838024000004742800E4742007000401C
:101300004FF0E0210428086903D020F004000861B0
:10131000704740F00400FAE7704710B5401EB0F186
:10132000807F01D3012010BD4FF0E02460610F21C8
:10133000601700F093F90020A061072020610020D1
:1013400010BD10B5FFF7E8FF10BD70B5040004D064
:1013500094F83900002510B106E0012070BD84F832
:101360003850204600F022F8242084F83900206804
:10137000C16821F40051C160204600F007FA2068DE
:10138000016921F4904101612068416921F02A013D
:1013900041612068C16841F40051C160E5632020CB
:1013A00084F8390084F83A00002070BD00B5006868
:1013B0000E4987B0884216D10D48016841F02001DE
:1013C00001600068694600F020000590C020009090
:1013D0000220019001200290032003900820049035
:1013E0000448FFF773F907B000BD00000014014086
:1013F00044380240000802402DE9F843044690F8C2
:1014000039001F4616460D46202850D1A5B19EB181
:1014100094F8380001284AD0012084F838004FF0B1
:101420000008C4F83C80212084F83900FFF726FA30
:10143000A6848146E68426E00120BDE8F883E08C9E
:10144000401EE084A0684B46B0F5805F4FF000027C
:101450004FF080012046009703D000F0EDFAE8B984
:101460000DE000F0E9FAC8B928882168C0F3080047
:101470004860206908B16D1C05E0AD1C03E02168DF
:1014800015F8010B4860E08C0028D8D14B460022AB
:1014900040212046009700F0CFFA08B10320CCE7A6
:1014A000202084F8390084F838800020C5E7022025
:1014B000C3E70000114810B50F49016010494160B1
:1014C00000210122C0E90212016141618161C16113
:1014D0000162FEF7E1FF00B1FEE700210748FEF7D9
:1014E0009CFF00B1FEE70120FEF7C2FFBDE81040FF
:1014F0000220FEF7BDBF0000006000400800002091
:10150000421240002DE9F0434D4887B000240168A5
:1015100041F004010160016801F0040105910168D6
:1015200041F080010160016801F0800105910168CE
:1015300041F020010160016801F02001059101687E
:1015400041F002010160016801F0020105910168AA
:1015500041F008010160016801F00801059101688E
:1015600041F040010160016801F04001059101680E
:1015700041F0010101600068324E00F0010044F2C8
:1015800081050590002229463046FFF771F9DFF802
:10159000B8800022E0214046FFF76AF9DFF8AC90FE
:1015A000002240214846FFF763F94FF400500090B5
:1015B0002748CDE9010469462648FFF787F80095DA
:1015C0000125CDE90154694630460394FFF77EF8C2
:1015D000E0200090CDE90154694640460394FFF7AE
:1015E00075F84FF440700226CDE9000603270294F7
:1015F0000720CDE9037069464046FFF767F84020B1
:101600000090CDE90154694648460394FFF75EF81F
:101610008020CDE90004694648460294FFF756F859
:101620004FF4E850CDE9000602940A20CDE903709A
:1016300069460948FFF74AF807B0BDE8F0830000A3
:101640003038024000040240000C02400018024002
:101650000000111000080240000002400907090EB6
:10166000002806DA00F00F0000F1E02080F8141DD9
:10167000704700F1E02080F80014704710B5FFF7C4
:1016800003F9BDE81040FFF75CBE000070B52848C4
:10169000AAB00025016841F080510160006800F0A7
:1016A000805028902348016841F44041016000685F
:1016B000022400F440400094289001201026069453
:1016C000CDE903060820CDE907506420CDE90904DF
:1016D0000B9468460C94FFF77FFC00B1FEE723A94A
:1016E0000F2081E831004FF48050CDE92605032119
:1016F00023A8FFF745FB00B1FEE74FF480001890E8
:101700000D960DA8FFF760F900B1FEE7FFF7F6FBB5
:101710004FF47A71B0FBF1F0FFF7FFFD0420FFF703
:10172000EFFD00221146501EFFF71CF92AB070BDD4
:1017300040380240007000401048016841F47001D8
:1017400001600F48016841F0010101600C4A00216D
:101750000832116002680B4B1A400260031D0A4AEE
:101760001A60026822F48022026005480C30016091
:1017700002495806803908607047000088ED00E093
:1017800000380240FFFFF6FE103000242DE9F04142
:1017900004460068016921F44052E1681143016187
:1017A0002168C86849F20C6290432369A268E56920
:1017B0001A4363692B431A430243CA60216848698C
:1017C00020F44072A06910434861E1696425B1F5D5
:1017D000004F9748974A21684FF032083FD0914216
:1017E00001D081427CD1FFF7A7FB00EBC00101EBE8
:1017F000001061688900B0FBF1F6FFF79DFB00EB7C
:10180000C00101EB001061688900B0FBF1F0B0FB92
:10181000F5F06FF01801484306EB800108EB01106A
:10182000B0FBF5F000F0F006FFF786FB00EBC0011F
:1018300001EB001061688900B0FBF1F0B0FBF5F03E
:1018400006EB0016FFF778FB00EBC00101EB001080
:1018500061688900B0FBF1F7FFF76EFBD2E09142BF
:1018600001D081423DD1FFF767FB00EBC00101EBE6
:10187000001061684900B0FBF1F0B0FBF5F0060123
:10188000FFF75AFB00EBC00101EB00106168490053
:10189000B0FBF1F7FFF750FB00EBC00101EB0010CC
:1018A00061684900B0FBF1F0B0FBF5F06FF0180192
:1018B000484307EB800108EBC100B0FBF5F000F0F6
:1018C000F80006EB4006FFF737FB00EBC00101EB29
:1018D000001061684900B0FBF1F7FFF72DFB3CE019
:1018E00055E0FFF711FB00EBC00101EB0010616850
:1018F0004900B0FBF1F0B0FBF5F00601FFF704FB87
:1019000000EBC00101EB001061684900B0FBF1F78A
:10191000FFF7FAFA00EBC00101EB00106168490023
:10192000B0FBF1F0B0FBF5F06FF01801484307EBA6
:10193000800108EBC100B0FBF5F000F0F80006EB09
:101940004006FFF7E1FA00EBC00101EB001061680F
:101950004900B0FBF1F7FFF7D7FA00EBC00101EB4C
:10196000001061684900B0FBF1F0B0FBF5F06FF0DA
:101970001801484307EB800108EBC100B0FBF5F00C
:1019800000F00700216830448860BDE8F081FFF76F
:10199000BBFA00EBC00101EB001061688900B0FBED
:1019A000F1F6FFF7B1FA00EBC00101EB001061683E
:1019B0008900B0FBF1F0B0FBF5F06FF0180148437F
:1019C00006EB800108EB0110B0FBF5F000F0F0062B
:1019D000FFF79AFA00EBC00101EB00106168890083
:1019E000B0FBF1F0B0FBF5F006EB0016FFF78CFA58
:1019F00000EBC00101EB001061688900B0FBF1F75A
:101A0000FFF782FA00EBC00101EB0010616889006A
:101A1000B0FBF1F0B0FBF5F06FF01801484307EBB5
:101A2000800108EB0110B0FBF5F000F00F00A9E712
:101A300000140140001001402DE9F041984617467E
:101A40000E460446069D1DE0681C1BD02DB1FEF716
:101A500015FFA0EB0800A84214D92068C16821F442
:101A6000D071C1602068416921F0010141612020ED
:101A700084F8390084F83A00002084F83800032004
:101A8000BDE8F0812068006836EA000004D000203C
:101A9000B842D9D00020F3E70120F9E702E008C8F6
:101AA000121F08C1002AFAD170477047002001E0D8
:101AB00001C1121F002AFBD170470000E6B0FEF7FB
:101AC000EBFEFFF7E3FDFFF71DFDFFF7F3FC6548B5
:101AD0006349002601606449C0E901160C21C66013
:101AE000C0E904618661C661FFF72FFC00B1FEE723
:101AF00021208DF8C60000258DF884608DF8C70080
:101B00008DF8C8008DF885602C46284601A9B1469D
:101B100041F82060401C8A462028F8DB002244F26D
:101B200081015248FEF7A4FE0122802150486BE05B
:101B30004C480A2721AE102302214C38B21C0097D2
:101B4000FEF706FD0228F3D0DFF8208101221146BE
:101B50004046FEF78DFE0DF1960B424810235A4683
:101B600006214C380097FEF7F3FC0228F5D001223D
:101B700080214046FEF77CFE0DF1A60B394810236C
:101B80005A460E214C380097FEF7E2FC0228F5D0A9
:101B9000012291034046FEF76BFE0DF1B60B314872
:101BA00010235A461E214C380097FEF7D1FC02281C
:101BB000F5D0012280212E48FEF75AFE4FF000009A
:101BC0002DB353A90DF1CC0331F810C053F82020E8
:101BD00006EB4002401C57882028A7EB0C0707F5AE
:101BE00000675780F0DB1923462221A91D48FFF723
:101BF00003FC00289CD10122910346464046FEF793
:101C000037FE002201213046FEF732FE90E75146B2
:101C100006EB400351F820205B881A4441F820204D
:101C2000401C2028F4DB641C3F2C81D1002053AAE7
:101C30004FF4006C01274E460DF1CC0351F82050B3
:101C4000C5F38F18012522F81080E04502D943F82A
:101C5000207001E043F82060401C2028EEDB67E79D
:101C6000001401405400002040420F0000040240D4
:101C7000000C02400000000000000000010203040C
:101C8000060708090000000001020304AC1C00085C
:101C900000000020080000009C1A0008B41C000886
:101CA0000800002090040000AC1A000800000000AA
:041CB0000024F40018
:04000005080001D915
:00000001FF
